{
  "contractName": "GymMembership",
  "abi": [
    {
      "inputs": [
        {
          "internalType": "address",
          "name": "_token",
          "type": "address"
        }
      ],
      "stateMutability": "nonpayable",
      "type": "constructor"
    },
    {
      "anonymous": false,
      "inputs": [
        {
          "indexed": true,
          "internalType": "address",
          "name": "owner",
          "type": "address"
        },
        {
          "indexed": true,
          "internalType": "address",
          "name": "spender",
          "type": "address"
        },
        {
          "indexed": false,
          "internalType": "uint256",
          "name": "value",
          "type": "uint256"
        }
      ],
      "name": "Approval",
      "type": "event"
    },
    {
      "anonymous": false,
      "inputs": [
        {
          "indexed": true,
          "internalType": "address",
          "name": "from",
          "type": "address"
        },
        {
          "indexed": true,
          "internalType": "address",
          "name": "to",
          "type": "address"
        },
        {
          "indexed": false,
          "internalType": "uint256",
          "name": "value",
          "type": "uint256"
        }
      ],
      "name": "Transfer",
      "type": "event"
    },
    {
      "inputs": [],
      "name": "admin",
      "outputs": [
        {
          "internalType": "address",
          "name": "",
          "type": "address"
        }
      ],
      "stateMutability": "view",
      "type": "function"
    },
    {
      "inputs": [
        {
          "internalType": "address",
          "name": "owner",
          "type": "address"
        },
        {
          "internalType": "address",
          "name": "spender",
          "type": "address"
        }
      ],
      "name": "allowance",
      "outputs": [
        {
          "internalType": "uint256",
          "name": "",
          "type": "uint256"
        }
      ],
      "stateMutability": "view",
      "type": "function"
    },
    {
      "inputs": [
        {
          "internalType": "address",
          "name": "spender",
          "type": "address"
        },
        {
          "internalType": "uint256",
          "name": "amount",
          "type": "uint256"
        }
      ],
      "name": "approve",
      "outputs": [
        {
          "internalType": "bool",
          "name": "",
          "type": "bool"
        }
      ],
      "stateMutability": "nonpayable",
      "type": "function"
    },
    {
      "inputs": [
        {
          "internalType": "address",
          "name": "account",
          "type": "address"
        }
      ],
      "name": "balanceOf",
      "outputs": [
        {
          "internalType": "uint256",
          "name": "",
          "type": "uint256"
        }
      ],
      "stateMutability": "view",
      "type": "function"
    },
    {
      "inputs": [],
      "name": "decimals",
      "outputs": [
        {
          "internalType": "uint8",
          "name": "",
          "type": "uint8"
        }
      ],
      "stateMutability": "view",
      "type": "function"
    },
    {
      "inputs": [
        {
          "internalType": "address",
          "name": "spender",
          "type": "address"
        },
        {
          "internalType": "uint256",
          "name": "subtractedValue",
          "type": "uint256"
        }
      ],
      "name": "decreaseAllowance",
      "outputs": [
        {
          "internalType": "bool",
          "name": "",
          "type": "bool"
        }
      ],
      "stateMutability": "nonpayable",
      "type": "function"
    },
    {
      "inputs": [
        {
          "internalType": "address",
          "name": "spender",
          "type": "address"
        },
        {
          "internalType": "uint256",
          "name": "addedValue",
          "type": "uint256"
        }
      ],
      "name": "increaseAllowance",
      "outputs": [
        {
          "internalType": "bool",
          "name": "",
          "type": "bool"
        }
      ],
      "stateMutability": "nonpayable",
      "type": "function"
    },
    {
      "inputs": [
        {
          "internalType": "address",
          "name": "",
          "type": "address"
        }
      ],
      "name": "members",
      "outputs": [
        {
          "internalType": "bool",
          "name": "isMember",
          "type": "bool"
        },
        {
          "internalType": "uint256",
          "name": "lastClaimed",
          "type": "uint256"
        }
      ],
      "stateMutability": "view",
      "type": "function"
    },
    {
      "inputs": [],
      "name": "name",
      "outputs": [
        {
          "internalType": "string",
          "name": "",
          "type": "string"
        }
      ],
      "stateMutability": "view",
      "type": "function"
    },
    {
      "inputs": [],
      "name": "symbol",
      "outputs": [
        {
          "internalType": "string",
          "name": "",
          "type": "string"
        }
      ],
      "stateMutability": "view",
      "type": "function"
    },
    {
      "inputs": [],
      "name": "totalSupply",
      "outputs": [
        {
          "internalType": "uint256",
          "name": "",
          "type": "uint256"
        }
      ],
      "stateMutability": "view",
      "type": "function"
    },
    {
      "inputs": [
        {
          "internalType": "address",
          "name": "to",
          "type": "address"
        },
        {
          "internalType": "uint256",
          "name": "amount",
          "type": "uint256"
        }
      ],
      "name": "transfer",
      "outputs": [
        {
          "internalType": "bool",
          "name": "",
          "type": "bool"
        }
      ],
      "stateMutability": "nonpayable",
      "type": "function"
    },
    {
      "inputs": [
        {
          "internalType": "address",
          "name": "from",
          "type": "address"
        },
        {
          "internalType": "address",
          "name": "to",
          "type": "address"
        },
        {
          "internalType": "uint256",
          "name": "amount",
          "type": "uint256"
        }
      ],
      "name": "transferFrom",
      "outputs": [
        {
          "internalType": "bool",
          "name": "",
          "type": "bool"
        }
      ],
      "stateMutability": "nonpayable",
      "type": "function"
    },
    {
      "inputs": [],
      "name": "buyMembership",
      "outputs": [],
      "stateMutability": "nonpayable",
      "type": "function"
    },
    {
      "inputs": [],
      "name": "claimTokens",
      "outputs": [],
      "stateMutability": "nonpayable",
      "type": "function"
    },
    {
      "inputs": [],
      "name": "cancelMembership",
      "outputs": [],
      "stateMutability": "nonpayable",
      "type": "function"
    }
  ],
  "bytecode": "0x608060405234801562000010575f80fd5b5060405162001e8a38038062001e8a833981810160405281019062000036919062000174565b6040518060400160405280601281526020017f47796d4d656d62657273686970546f6b656e00000000000000000000000000008152506040518060400160405280600381526020017f474d5400000000000000000000000000000000000000000000000000000000008152508160039081620000b3919062000408565b508060049081620000c5919062000408565b5050503360065f6101000a81548173ffffffffffffffffffffffffffffffffffffffff021916908373ffffffffffffffffffffffffffffffffffffffff16021790555050620004ec565b5f80fd5b5f73ffffffffffffffffffffffffffffffffffffffff82169050919050565b5f6200013e8262000113565b9050919050565b620001508162000132565b81146200015b575f80fd5b50565b5f815190506200016e8162000145565b92915050565b5f602082840312156200018c576200018b6200010f565b5b5f6200019b848285016200015e565b91505092915050565b5f81519050919050565b7f4e487b71000000000000000000000000000000000000000000000000000000005f52604160045260245ffd5b7f4e487b71000000000000000000000000000000000000000000000000000000005f52602260045260245ffd5b5f60028204905060018216806200022057607f821691505b602082108103620002365762000235620001db565b5b50919050565b5f819050815f5260205f209050919050565b5f6020601f8301049050919050565b5f82821b905092915050565b5f600883026200029a7fffffffffffffffffffffffffffffffffffffffffffffffffffffffffffffffff826200025d565b620002a686836200025d565b95508019841693508086168417925050509392505050565b5f819050919050565b5f819050919050565b5f620002f0620002ea620002e484620002be565b620002c7565b620002be565b9050919050565b5f819050919050565b6200030b83620002d0565b620003236200031a82620002f7565b84845462000269565b825550505050565b5f90565b620003396200032b565b6200034681848462000300565b505050565b5b818110156200036d57620003615f826200032f565b6001810190506200034c565b5050565b601f821115620003bc5762000386816200023c565b62000391846200024e565b81016020851015620003a1578190505b620003b9620003b0856200024e565b8301826200034b565b50505b505050565b5f82821c905092915050565b5f620003de5f1984600802620003c1565b1980831691505092915050565b5f620003f88383620003cd565b9150826002028217905092915050565b6200041382620001a4565b67ffffffffffffffff8111156200042f576200042e620001ae565b5b6200043b825462000208565b6200044882828562000371565b5f60209050601f8311600181146200047e575f841562000469578287015190505b620004758582620003eb565b865550620004e4565b601f1984166200048e866200023c565b5f5b82811015620004b75784890151825560018201915060208501945060208101905062000490565b86831015620004d75784890151620004d3601f891682620003cd565b8355505b6001600288020188555050505b505050505050565b61199080620004fa5f395ff3fe608060405234801561000f575f80fd5b50600436106100fe575f3560e01c806348c54b9d11610095578063a457c2d711610064578063a457c2d714610289578063a9059cbb146102b9578063dd62ed3e146102e9578063f851a44014610319576100fe565b806348c54b9d146102275780635c5811191461023157806370a082311461023b57806395d89b411461026b576100fe565b806318160ddd116100d157806318160ddd1461018b57806323b872dd146101a9578063313ce567146101d957806339509351146101f7576100fe565b806306fdde0314610102578063082e847a1461012057806308ae4b0c1461012a578063095ea7b31461015b575b5f80fd5b61010a610337565b60405161011791906110bb565b60405180910390f35b6101286103c7565b005b610144600480360381019061013f9190611139565b6104b1565b604051610152929190611196565b60405180910390f35b610175600480360381019061017091906111e7565b6104dd565b6040516101829190611225565b60405180910390f35b6101936104ff565b6040516101a0919061123e565b60405180910390f35b6101c360048036038101906101be9190611257565b610508565b6040516101d09190611225565b60405180910390f35b6101e1610536565b6040516101ee91906112c2565b60405180910390f35b610211600480360381019061020c91906111e7565b61053e565b60405161021e9190611225565b60405180910390f35b61022f610574565b005b6102396106e8565b005b61025560048036038101906102509190611139565b610805565b604051610262919061123e565b60405180910390f35b61027361084a565b60405161028091906110bb565b60405180910390f35b6102a3600480360381019061029e91906111e7565b6108da565b6040516102b09190611225565b60405180910390f35b6102d360048036038101906102ce91906111e7565b61094f565b6040516102e09190611225565b60405180910390f35b61030360048036038101906102fe91906112db565b610971565b604051610310919061123e565b60405180910390f35b6103216109f3565b60405161032e9190611328565b60405180910390f35b6060600380546103469061136e565b80601f01602080910402602001604051908101604052809291908181526020018280546103729061136e565b80156103bd5780601f10610394576101008083540402835291602001916103bd565b820191905f5260205f20905b8154815290600101906020018083116103a057829003601f168201915b5050505050905090565b6001151560055f3373ffffffffffffffffffffffffffffffffffffffff1673ffffffffffffffffffffffffffffffffffffffff1681526020019081526020015f205f015f9054906101000a900460ff16151514610459576040517f08c379a0000000000000000000000000000000000000000000000000000000008152600401610450906113e8565b60405180910390fd5b5f60055f3373ffffffffffffffffffffffffffffffffffffffff1673ffffffffffffffffffffffffffffffffffffffff1681526020019081526020015f205f015f6101000a81548160ff021916908315150217905550565b6005602052805f5260405f205f91509050805f015f9054906101000a900460ff16908060010154905082565b5f806104e7610a18565b90506104f4818585610a1f565b600191505092915050565b5f600254905090565b5f80610512610a18565b905061051f858285610be2565b61052a858585610c6d565b60019150509392505050565b5f6012905090565b5f80610548610a18565b905061056981858561055a8589610971565b6105649190611433565b610a1f565b600191505092915050565b6001151560055f3373ffffffffffffffffffffffffffffffffffffffff1673ffffffffffffffffffffffffffffffffffffffff1681526020019081526020015f205f015f9054906101000a900460ff16151514610606576040517f08c379a00000000000000000000000000000000000000000000000000000000081526004016105fd906113e8565b60405180910390fd5b62278d0060055f3373ffffffffffffffffffffffffffffffffffffffff1673ffffffffffffffffffffffffffffffffffffffff1681526020019081526020015f20600101546106559190611433565b4211610696576040517f08c379a000000000000000000000000000000000000000000000000000000000815260040161068d906114b0565b60405180910390fd5b6106a1336005610ed9565b4260055f3373ffffffffffffffffffffffffffffffffffffffff1673ffffffffffffffffffffffffffffffffffffffff1681526020019081526020015f2060010181905550565b5f151560055f3373ffffffffffffffffffffffffffffffffffffffff1673ffffffffffffffffffffffffffffffffffffffff1681526020019081526020015f205f015f9054906101000a900460ff16151514610779576040517f08c379a000000000000000000000000000000000000000000000000000000000815260040161077090611518565b60405180910390fd5b61078433600a610ed9565b60405180604001604052806001151581526020014281525060055f3373ffffffffffffffffffffffffffffffffffffffff1673ffffffffffffffffffffffffffffffffffffffff1681526020019081526020015f205f820151815f015f6101000a81548160ff02191690831515021790555060208201518160010155905050565b5f805f8373ffffffffffffffffffffffffffffffffffffffff1673ffffffffffffffffffffffffffffffffffffffff1681526020019081526020015f20549050919050565b6060600480546108599061136e565b80601f01602080910402602001604051908101604052809291908181526020018280546108859061136e565b80156108d05780601f106108a7576101008083540402835291602001916108d0565b820191905f5260205f20905b8154815290600101906020018083116108b357829003601f168201915b5050505050905090565b5f806108e4610a18565b90505f6108f18286610971565b905083811015610936576040517f08c379a000000000000000000000000000000000000000000000000000000000815260040161092d906115a6565b60405180910390fd5b6109438286868403610a1f565b60019250505092915050565b5f80610959610a18565b9050610966818585610c6d565b600191505092915050565b5f60015f8473ffffffffffffffffffffffffffffffffffffffff1673ffffffffffffffffffffffffffffffffffffffff1681526020019081526020015f205f8373ffffffffffffffffffffffffffffffffffffffff1673ffffffffffffffffffffffffffffffffffffffff1681526020019081526020015f2054905092915050565b60065f9054906101000a900473ffffffffffffffffffffffffffffffffffffffff1681565b5f33905090565b5f73ffffffffffffffffffffffffffffffffffffffff168373ffffffffffffffffffffffffffffffffffffffff1603610a8d576040517f08c379a0000000000000000000000000000000000000000000000000000000008152600401610a8490611634565b60405180910390fd5b5f73ffffffffffffffffffffffffffffffffffffffff168273ffffffffffffffffffffffffffffffffffffffff1603610afb576040517f08c379a0000000000000000000000000000000000000000000000000000000008152600401610af2906116c2565b60405180910390fd5b8060015f8573ffffffffffffffffffffffffffffffffffffffff1673ffffffffffffffffffffffffffffffffffffffff1681526020019081526020015f205f8473ffffffffffffffffffffffffffffffffffffffff1673ffffffffffffffffffffffffffffffffffffffff1681526020019081526020015f20819055508173ffffffffffffffffffffffffffffffffffffffff168373ffffffffffffffffffffffffffffffffffffffff167f8c5be1e5ebec7d5bd14f71427d1e84f3dd0314c0f7b2291e5b200ac8c7c3b92583604051610bd5919061123e565b60405180910390a3505050565b5f610bed8484610971565b90507fffffffffffffffffffffffffffffffffffffffffffffffffffffffffffffffff8114610c675781811015610c59576040517f08c379a0000000000000000000000000000000000000000000000000000000008152600401610c509061172a565b60405180910390fd5b610c668484848403610a1f565b5b50505050565b5f73ffffffffffffffffffffffffffffffffffffffff168373ffffffffffffffffffffffffffffffffffffffff1603610cdb576040517f08c379a0000000000000000000000000000000000000000000000000000000008152600401610cd2906117b8565b60405180910390fd5b5f73ffffffffffffffffffffffffffffffffffffffff168273ffffffffffffffffffffffffffffffffffffffff1603610d49576040517f08c379a0000000000000000000000000000000000000000000000000000000008152600401610d4090611846565b60405180910390fd5b610d54838383611027565b5f805f8573ffffffffffffffffffffffffffffffffffffffff1673ffffffffffffffffffffffffffffffffffffffff1681526020019081526020015f2054905081811015610dd7576040517f08c379a0000000000000000000000000000000000000000000000000000000008152600401610dce906118d4565b60405180910390fd5b8181035f808673ffffffffffffffffffffffffffffffffffffffff1673ffffffffffffffffffffffffffffffffffffffff1681526020019081526020015f2081905550815f808573ffffffffffffffffffffffffffffffffffffffff1673ffffffffffffffffffffffffffffffffffffffff1681526020019081526020015f205f82825401925050819055508273ffffffffffffffffffffffffffffffffffffffff168473ffffffffffffffffffffffffffffffffffffffff167fddf252ad1be2c89b69c2b068fc378daa952ba7f163c4a11628f55a4df523b3ef84604051610ec0919061123e565b60405180910390a3610ed384848461102c565b50505050565b5f73ffffffffffffffffffffffffffffffffffffffff168273ffffffffffffffffffffffffffffffffffffffff1603610f47576040517f08c379a0000000000000000000000000000000000000000000000000000000008152600401610f3e9061193c565b60405180910390fd5b610f525f8383611027565b8060025f828254610f639190611433565b92505081905550805f808473ffffffffffffffffffffffffffffffffffffffff1673ffffffffffffffffffffffffffffffffffffffff1681526020019081526020015f205f82825401925050819055508173ffffffffffffffffffffffffffffffffffffffff165f73ffffffffffffffffffffffffffffffffffffffff167fddf252ad1be2c89b69c2b068fc378daa952ba7f163c4a11628f55a4df523b3ef83604051611010919061123e565b60405180910390a36110235f838361102c565b5050565b505050565b505050565b5f81519050919050565b5f82825260208201905092915050565b5f5b8381101561106857808201518184015260208101905061104d565b5f8484015250505050565b5f601f19601f8301169050919050565b5f61108d82611031565b611097818561103b565b93506110a781856020860161104b565b6110b081611073565b840191505092915050565b5f6020820190508181035f8301526110d38184611083565b905092915050565b5f80fd5b5f73ffffffffffffffffffffffffffffffffffffffff82169050919050565b5f611108826110df565b9050919050565b611118816110fe565b8114611122575f80fd5b50565b5f813590506111338161110f565b92915050565b5f6020828403121561114e5761114d6110db565b5b5f61115b84828501611125565b91505092915050565b5f8115159050919050565b61117881611164565b82525050565b5f819050919050565b6111908161117e565b82525050565b5f6040820190506111a95f83018561116f565b6111b66020830184611187565b9392505050565b6111c68161117e565b81146111d0575f80fd5b50565b5f813590506111e1816111bd565b92915050565b5f80604083850312156111fd576111fc6110db565b5b5f61120a85828601611125565b925050602061121b858286016111d3565b9150509250929050565b5f6020820190506112385f83018461116f565b92915050565b5f6020820190506112515f830184611187565b92915050565b5f805f6060848603121561126e5761126d6110db565b5b5f61127b86828701611125565b935050602061128c86828701611125565b925050604061129d868287016111d3565b9150509250925092565b5f60ff82169050919050565b6112bc816112a7565b82525050565b5f6020820190506112d55f8301846112b3565b92915050565b5f80604083850312156112f1576112f06110db565b5b5f6112fe85828601611125565b925050602061130f85828601611125565b9150509250929050565b611322816110fe565b82525050565b5f60208201905061133b5f830184611319565b92915050565b7f4e487b71000000000000000000000000000000000000000000000000000000005f52602260045260245ffd5b5f600282049050600182168061138557607f821691505b60208210810361139857611397611341565b5b50919050565b7f4e6f742061206d656d62657200000000000000000000000000000000000000005f82015250565b5f6113d2600c8361103b565b91506113dd8261139e565b602082019050919050565b5f6020820190508181035f8301526113ff816113c6565b9050919050565b7f4e487b71000000000000000000000000000000000000000000000000000000005f52601160045260245ffd5b5f61143d8261117e565b91506114488361117e565b92508282019050808211156114605761145f611406565b5b92915050565b7f416c726561647920636c61696d65642074686973206d6f6e74680000000000005f82015250565b5f61149a601a8361103b565b91506114a582611466565b602082019050919050565b5f6020820190508181035f8301526114c78161148e565b9050919050565b7f416c72656164792061206d656d626572000000000000000000000000000000005f82015250565b5f61150260108361103b565b915061150d826114ce565b602082019050919050565b5f6020820190508181035f83015261152f816114f6565b9050919050565b7f45524332303a2064656372656173656420616c6c6f77616e63652062656c6f775f8201527f207a65726f000000000000000000000000000000000000000000000000000000602082015250565b5f61159060258361103b565b915061159b82611536565b604082019050919050565b5f6020820190508181035f8301526115bd81611584565b9050919050565b7f45524332303a20617070726f76652066726f6d20746865207a65726f206164645f8201527f7265737300000000000000000000000000000000000000000000000000000000602082015250565b5f61161e60248361103b565b9150611629826115c4565b604082019050919050565b5f6020820190508181035f83015261164b81611612565b9050919050565b7f45524332303a20617070726f766520746f20746865207a65726f2061646472655f8201527f7373000000000000000000000000000000000000000000000000000000000000602082015250565b5f6116ac60228361103b565b91506116b782611652565b604082019050919050565b5f6020820190508181035f8301526116d9816116a0565b9050919050565b7f45524332303a20696e73756666696369656e7420616c6c6f77616e63650000005f82015250565b5f611714601d8361103b565b915061171f826116e0565b602082019050919050565b5f6020820190508181035f83015261174181611708565b9050919050565b7f45524332303a207472616e736665722066726f6d20746865207a65726f2061645f8201527f6472657373000000000000000000000000000000000000000000000000000000602082015250565b5f6117a260258361103b565b91506117ad82611748565b604082019050919050565b5f6020820190508181035f8301526117cf81611796565b9050919050565b7f45524332303a207472616e7366657220746f20746865207a65726f20616464725f8201527f6573730000000000000000000000000000000000000000000000000000000000602082015250565b5f61183060238361103b565b915061183b826117d6565b604082019050919050565b5f6020820190508181035f83015261185d81611824565b9050919050565b7f45524332303a207472616e7366657220616d6f756e74206578636565647320625f8201527f616c616e63650000000000000000000000000000000000000000000000000000602082015250565b5f6118be60268361103b565b91506118c982611864565b604082019050919050565b5f6020820190508181035f8301526118eb816118b2565b9050919050565b7f45524332303a206d696e7420746f20746865207a65726f2061646472657373005f82015250565b5f611926601f8361103b565b9150611931826118f2565b602082019050919050565b5f6020820190508181035f8301526119538161191a565b905091905056fea2646970667358221220486caf0ac52dec00d8ca923625570a2c728f030847320a6d4c124f5ea2547d2c64736f6c63430008140033",
  "immutableReferences": {},
  "source": "// SPDX-License-Identifier: MIT\r\npragma solidity ^0.8.4;\r\n\r\nimport \"@openzeppelin/contracts/token/ERC20/ERC20.sol\";\r\n\r\ncontract GymMembership is ERC20 {\r\n    struct Member {\r\n        bool isMember;\r\n        uint256 lastClaimed;\r\n    }\r\n\r\n    mapping(address => Member) public members;\r\n    address public admin;\r\n\r\n    constructor(address _token) ERC20(\"GymMembershipToken\", \"GMT\") {\r\n        admin = msg.sender;\r\n    }\r\n\r\n    function buyMembership() external {\r\n        require(members[msg.sender].isMember == false, \"Already a member\");\r\n        _mint(msg.sender, 10);\r\n        members[msg.sender] = Member(true, block.timestamp);\r\n    }\r\n\r\n    function claimTokens() external {\r\n        require(members[msg.sender].isMember == true, \"Not a member\");\r\n        require(block.timestamp > members[msg.sender].lastClaimed + 30 days, \"Already claimed this month\");\r\n        _mint(msg.sender, 5);\r\n        members[msg.sender].lastClaimed = block.timestamp;\r\n    }\r\n\r\n    function cancelMembership() external {\r\n        require(members[msg.sender].isMember == true, \"Not a member\");\r\n        members[msg.sender].isMember = false;\r\n    }\r\n}",
  "sourcePath": "C:\\Users\\GiuliaCuloma\\Desktop\\DApp Project\\GymApp\\MyApp\\contracts\\MyAppContract.sol",
  "compiler": {
    "name": "solc",
    "version": "0.8.20+commit.a1b79de6.Emscripten.clang"
  },
  "schemaVersion": "3.4.14",
  "updatedAt": "2023-07-16T19:26:05.960Z",
  "devdoc": {
    "events": {
      "Approval(address,address,uint256)": {
        "details": "Emitted when the allowance of a `spender` for an `owner` is set by a call to {approve}. `value` is the new allowance."
      },
      "Transfer(address,address,uint256)": {
        "details": "Emitted when `value` tokens are moved from one account (`from`) to another (`to`). Note that `value` may be zero."
      }
    },
    "kind": "dev",
    "methods": {
      "allowance(address,address)": {
        "details": "See {IERC20-allowance}."
      },
      "approve(address,uint256)": {
        "details": "See {IERC20-approve}. NOTE: If `amount` is the maximum `uint256`, the allowance is not updated on `transferFrom`. This is semantically equivalent to an infinite approval. Requirements: - `spender` cannot be the zero address."
      },
      "balanceOf(address)": {
        "details": "See {IERC20-balanceOf}."
      },
      "decimals()": {
        "details": "Returns the number of decimals used to get its user representation. For example, if `decimals` equals `2`, a balance of `505` tokens should be displayed to a user as `5.05` (`505 / 10 ** 2`). Tokens usually opt for a value of 18, imitating the relationship between Ether and Wei. This is the default value returned by this function, unless it's overridden. NOTE: This information is only used for _display_ purposes: it in no way affects any of the arithmetic of the contract, including {IERC20-balanceOf} and {IERC20-transfer}."
      },
      "decreaseAllowance(address,uint256)": {
        "details": "Atomically decreases the allowance granted to `spender` by the caller. This is an alternative to {approve} that can be used as a mitigation for problems described in {IERC20-approve}. Emits an {Approval} event indicating the updated allowance. Requirements: - `spender` cannot be the zero address. - `spender` must have allowance for the caller of at least `subtractedValue`."
      },
      "increaseAllowance(address,uint256)": {
        "details": "Atomically increases the allowance granted to `spender` by the caller. This is an alternative to {approve} that can be used as a mitigation for problems described in {IERC20-approve}. Emits an {Approval} event indicating the updated allowance. Requirements: - `spender` cannot be the zero address."
      },
      "name()": {
        "details": "Returns the name of the token."
      },
      "symbol()": {
        "details": "Returns the symbol of the token, usually a shorter version of the name."
      },
      "totalSupply()": {
        "details": "See {IERC20-totalSupply}."
      },
      "transfer(address,uint256)": {
        "details": "See {IERC20-transfer}. Requirements: - `to` cannot be the zero address. - the caller must have a balance of at least `amount`."
      },
      "transferFrom(address,address,uint256)": {
        "details": "See {IERC20-transferFrom}. Emits an {Approval} event indicating the updated allowance. This is not required by the EIP. See the note at the beginning of {ERC20}. NOTE: Does not update the allowance if the current allowance is the maximum `uint256`. Requirements: - `from` and `to` cannot be the zero address. - `from` must have a balance of at least `amount`. - the caller must have allowance for ``from``'s tokens of at least `amount`."
      }
    },
    "version": 1
  },
  "userdoc": {
    "kind": "user",
    "methods": {},
    "version": 1
  }
}